:100000000C945E000C9486000C9486000C94860080
:100010000C9486000C9486000C9486000C94BD060B
:100020000C9486000C9486000C9450070C94860067
:100030000C9486000C943F070C9486000C94860068
:100040000C9473060C9486000C9486000C94860025
:100050000C9486000C9486000C9486000C94860008
:100060000C9486000C948600000000080002010039
:100070000003040700000000000000000200000070
:1000800000250028002B0000000000240027002A83
:100090000004040404040404040202020202020331
:1000A000030303030301020408102040800102043B
:1000B00008102001020408102000570911241FBE57
:1000C000CFEFD8E0DEBFCDBF11E0A0E0B1E0E2E3CA
:1000D000F8E102C005900D92AE36B107D9F721E0E4
:1000E000AEE6B1E001C01D92AC3AB207E1F710E014
:1000F000CEE5D0E004C02197FE010E94FD0BCD3576
:10010000D107C9F70E9496070C94170C0C940000B5
:1001100090E0FC01EB55FF4F2491FC01EF56FF4F9F
:100120008491882399F090E0880F991FFC01E9578A
:10013000FF4FA591B491FC01E358FF4F8591949135
:100140008FB7F894EC91E22BEC938FBF08954F9208
:100150005F926F927F928F929F92AF92BF92CF9257
:10016000DF92EF92FF920F931F93CF93DF9300D014
:1001700000D01F92CDB7DEB78C012A013B018091E0
:1001800010018B3021F08F3F09F03AC205C0ECE737
:10019000F0E024912D8371C08BE080931001ECE797
:1001A000F0E084918D838F3F09F42AC2813009F4F5
:1001B00041C038F1823009F060C01092B000109256
:1001C000B1008091B00082608093B0008091B10056
:1001D00081608093B100ECE9F0E0E491F0E0EE0F93
:1001E000FF1FE358FF4F8591949190938501809371
:1001F0008401E0EBF0E0E491E093830122E02D83C1
:10020000FBC114BC15BC84B5826084BD85B581601A
:1002100085BDECE9F0E0E491F0E0EE0FFF1FE3585C
:10022000FF4F85919491E0EBF0E0E491E09387013A
:100230001D82E2C1109280001092810080918100A5
:10024000886080938100809181008160809381002B
:10025000ECE9F0E0E491F0E0EE0FFF1FE358FF4F10
:1002600085919491E0EBF0E0E491E09386018BE0DE
:100270000E94880091E09D8389C08D8187FDC0C167
:100280008BE00E9488008D818D7F09F07FC048013E
:10029000A12CB12C60E072E18AE790E0A501940105
:1002A0000E94D30B29833A834B835C8369017A01D3
:1002B00091E0C91AD108E108F1082FEFC216D10464
:1002C000E104F10409F008F44EC060E472E48FE048
:1002D00090E0A50194010E94D30B69017A0181E0AD
:1002E000C81AD108E108F1089D81923009F52FEF75
:1002F000C216D104E104F10409F008F444C160E934
:1003000070ED83E090E0A50194010E94D30B690198
:100310007A0181E0C81AD108E108F1089FEFC916F7
:10032000D104E104F10411F008F0BAC083E027C061
:100330002FEFC216D104E104F104B9F0B0F068E483
:1003400078EE81E090E0A50194010E94D30B690151
:100350007A0181E0C81AD108E108F1089D8199234A
:1003600009F413C1DCC081E001C082E09D819111DC
:1003700006C095B5987F892B85BD44C085E09091D6
:10038000B100987F892B8093B1003CC04801A12C1B
:10039000B12C60E072E18AE790E0A50194010E942F
:1003A000D30B69017A0181E0C81AD108E108F1088C
:1003B000C114D10491E0E906F10488F068E478EE14
:1003C00081E090E0A50194010E94D30B69017A01BC
:1003D00081E0C81AD108E108F10883E001C081E09A
:1003E0009D81913079F490918100987F892B809341
:1003F0008100411451046104710449F42FEF3FEF6F
:10040000A9012CC0411451046104710471F0D80198
:10041000AA0FBB1FA30192010E94F20B28EE33E04A
:1004200040E050E00E94B10B03C02FEF3FEFA90165
:100430008D81813099F0823019F18111E1C0C7BC02
:100440002093900130939101409392015093930136
:1004500080916E00826080936E00D2C0D09289003D
:10046000C092880020938C0130938D0140938E01BF
:1004700050938F0180916F00826080936F00C0C0A5
:10048000C092B300209388013093890140938A0180
:1004900050938B0180917000826080937000B0C097
:1004A00068E478EE81E090E0A50194010E94D30B0E
:1004B00069017A0191E0C91AD108E108F1082FEF2A
:1004C000C216D104E104F10441F138F164E274EFA1
:1004D00080E090E0A50194010E94D30B69017A01AC
:1004E00081E0C81AD108E108F1089FEFC916D104CC
:1004F000E104F10409F008F441CF62E17AE780E019
:1005000090E0A50194010E94D30B69017A0181E07A
:10051000C81AD108E108F10819C084E030CF2FEFE4
:10052000C216D104E104F10409F008F463C062E1E9
:100530007AE780E090E0A50194010E94D30B690165
:100540007A0191E0C91AD108E108F1088FEFC816C5
:10055000D104E104F104A9F0A0F089819A81AB8172
:10056000BC812AE0B595A795979587952A95D1F7EF
:100570006C017D0121E0C21AD108E108F10887E091
:10058000FECE86E0FCCE82E0FACE8FEFC816D10414
:10059000E104F10469F160F162E17AE780E090E062
:1005A000A50194010E94D30B69017A0191E0C91A57
:1005B000D108E108F1082FEFC216D104E104F104DB
:1005C000A9F0A0F089819A81AB81BC813AE0B59510
:1005D000A795979587953A95D1F76C017D0121E014
:1005E000C21AD108E108F10885E0C3CE84E0C1CE8B
:1005F00083E0BFCE84E0BACE8BE00E94880047CE75
:100600000F900F900F900F900F90DF91CF911F914F
:100610000F91FF90EF90DF90CF90BF90AF909F90A1
:100620008F907F906F905F904F90089590E0FC01C5
:10063000E859FF4F2491FC01EB55FF4F3491FC0129
:10064000EF56FF4FE491EE2309F43CC0222339F129
:10065000233091F038F42130A9F0223001F584B52F
:100660008F7D12C0273091F02830A1F02430B9F4EA
:10067000809180008F7D03C0809180008F77809370
:1006800080000DC084B58F7784BD09C08091B00013
:100690008F7703C08091B0008F7D8093B000F0E031
:1006A000EE0FFF1FE358FF4FA591B4919FB7F89449
:1006B000611104C08C913095382302C0EC913E2B1F
:1006C0003C939FBF08953FB7F89480917F0190912C
:1006D0008001A0918101B091820126B5A89B05C03F
:1006E0002F3F19F00196A11DB11D3FBFBA2FA92FB1
:1006F000982F8827820F911DA11DB11DBC01CD012E
:1007000042E0660F771F881F991F4A95D1F7089519
:100710008F929F92AF92BF92CF92DF92EF92FF9211
:100720006B017C010E9463034B015C01C114D10485
:10073000E104F104F1F00E946303DC01CB018819AC
:100740009909AA09BB09883E9340A105B10570F338
:1007500021E0C21AD108E108F10888EE880E83E092
:10076000981EA11CB11CC114D104E104F10419F7B5
:10077000DDCFFF90EF90DF90CF90BF90AF909F9034
:100780008F900895CF92DF92EF92FF920F931F9375
:10079000CF93DF936C017A018B01C0E0D0E0CE15DE
:1007A000DF0581F0D8016D918D01D601ED91FC91AD
:1007B0000190F081E02DC6010995892B11F0219659
:1007C000EECF7E01C701DF91CF911F910F91FF9076
:1007D000EF90DF90CF900895CF93DF93EC0160E02E
:1007E0008E810E94160361E08E810E94160360E0F4
:1007F0008E810E9416038BE891E00197F1F7DF915B
:10080000CF910895CF92DF92EF92FF920F931F93B3
:10081000CF93DF936C017C0187E0E80EF11CC0E010
:10082000D0E0062F10E0B8010C2E02C07595679538
:100830000A94E2F76170F70181917F010E9416032B
:100840002196C430D10579F7C601DF91CF911F9170
:100850000F91FF90EF90DF90CF900C94EC03CF922C
:10086000DF92EF92FF920F931F93CF93DF93EC01F0
:10087000F62E642F8C810E9416038D818F3F19F014
:1008800060E00E9416038F850F2D10E084FF25C0C5
:100890006E0187E0C80ED11CE12CF12CB8010E2CA2
:1008A00002C0759567950A94E2F76170F60181912F
:1008B0006F010E941603FFEFEF1AFF0A88E0E816A7
:1008C000F10461F7CE01DF91CF911F910F91FF905D
:1008D000EF90DF90CF900C94EC03B80184E0759515
:1008E00067958A95E1F7CE010E9402046F2DCE0133
:1008F000DF91CF911F910F91FF90EF90DF90CF90FC
:100900000C94020440E0682F84E991E00C942F04D9
:1009100081E00E9482048BE39FE10197F1F7089543
:10092000CF93DF93823028F09091A3019860909349
:10093000A3018093A7011092A80180E48093A901EC
:1009400080E18093AA0180E58093AB0180919801BA
:100950000E948800809199018F3F11F00E948800C9
:1009600080919A010E948800C4E9D1E09E01245937
:1009700031408091A30184FD03C084E090E002C077
:1009800088E090E021962817390724F48E810E9490
:100990008800ECCF8BE39DE00197F1F760E0809158
:1009A00098010E94160360E080919A010E9416034C
:1009B000809199018F3F19F060E00E9416038091A9
:1009C000A30184FD20C063E084E991E00E94020459
:1009D000CBE4D6E4CE010197F1F763E084E991E03E
:1009E0000E9402042197F1F763E084E991E00E94FC
:1009F000020483E592E00197F1F762E084E991E077
:100A00000E94020415C080620E9482048BE496E476
:100A10000197F1F78091A30180620E94820483E52F
:100A200092E00197F1F78091A30180620E94820415
:100A30008091A30180620E94820484E08093A401DB
:100A40008CE00E9482040E94880482E08093A501C9
:100A500086E0DF91CF910C948204843008F083E02B
:100A60009091A701891710F08FEF890FE82FF0E020
:100A7000EC56FE4F848980680C94820441E00E9409
:100A80002F0481E090E00895089580E090E00895BB
:100A9000009769F0FC0101900020E9F73197AF0160
:100AA000481B590BBC0184E991E00C94C20380E01F
:100AB00090E008950C9448058F929F92AF92BF9258
:100AC0000F931F93CF93DF93CDB7DEB7A1970FB6E8
:100AD000F894DEBF0FBECDBF19A2423008F44AE041
:100AE0008E010F5D1F4F842E912CA12CB12CA501DE
:100AF00094010E94B10BE62FB901CA0101501109FE
:100B0000EA3014F4E05D01C0E95CD801EC93232BDA
:100B1000242B252B61F7C8010E944805A1960FB62A
:100B2000F894DEBF0FBECDBFDF91CF911F910F9123
:100B3000BF90AF909F908F9008958F929F92AF92A9
:100B4000BF92CF92DF92EF92FF920F931F93CF93BA
:100B5000DF936B017C01142F9B01AC010E94AC0B55
:100B6000882319F08DE191E027C046015701E894F0
:100B7000B7F82FEF3FEF4FE75FE7C501B4010E94E1
:100B8000AC0B81110DC02FEF3FEF4FE75FE7C501C1
:100B9000B4010E94E20918161CF481E291E00CC035
:100BA0002FEF3FEF4FE75FE4C701B6010E943A0B1A
:100BB000181684F485E291E0DF91CF911F910F9197
:100BC000FF90EF90DF90CF90BF90AF909F908F906D
:100BD0000C9448052FEF3FEF4FE75FECC701B601DC
:100BE0000E94E20987FDE6CF20E030E0A901C701BD
:100BF000B6010E94E20987FF0DC041E06DE284E981
:100C000091E00E942F04F7FAF094F7F8F094C1E015
:100C1000D0E002C0C0E0D0E000E060E070E080E042
:100C20009FE3101741F020E030E040E251E40E94E1
:100C3000E7090F5FF6CFA70196010E9476096B01C5
:100C40007C010E94590A4B015C014AE00E945C054C
:100C5000C80FD91F1123B9F1C501B4010E94880A38
:100C60009B01AC01C701B6010E9475096B017C01B3
:100C700041E06EE284E991E00E942F04219620E099
:100C800030E040E251E4C701B6010E943F0B4B0146
:100C90005C010E94590A6B01E12CF12C4AE0C7016A
:100CA000B6010E945C05C80FD91FC701B6010E949A
:100CB000880A9B01AC01C501B4010E9475096B0152
:100CC0007C011150E1F6CE01DF91CF911F910F9180
:100CD000FF90EF90DF90CF90BF90AF909F908F905C
:100CE00008950E94120C1F920F920FB60F921124BA
:100CF0002F933F938F939F93AF93BF9380917B01EB
:100D000090917C01A0917D01B0917E0130917A019A
:100D100023E0230F2D3720F40196A11DB11D05C03E
:100D200026E8230F0296A11DB11D20937A0180931E
:100D30007B0190937C01A0937D01B0937E01809113
:100D40007F0190918001A0918101B0918201019673
:100D5000A11DB11D80937F0190938001A09381011B
:100D6000B0938201BF91AF919F918F913F912F914D
:100D70000F900FBE0F901F9018951F920F920FB6F5
:100D80000F9211242F933F934F935F936F937F9311
:100D90008F939F93AF93BF93EF93FF9380918801BD
:100DA00090918901A0918A01B0918B01892B8A2BA6
:100DB0008B2B59F190918301E0918401F091850191
:100DC0008081892780838091880190918901A091F9
:100DD0008A01B0918B01181619061A061B060CF031
:100DE0003DC08091880190918901A0918A01B091C4
:100DF0008B010197A109B109809388019093890122
:100E0000A0938A01B0938B0129C080911001ECE777
:100E1000F0E0E4919FEF90931001E130B9F098F089
:100E2000E230C9F4909170009D7F9093700091E042
:100E30009093B0009091B100987F94609093B1002E
:100E40001092B30008C010926E0005C090916F0020
:100E50009D7F90936F0060E00E941603FF91EF91D9
:100E6000BF91AF919F918F917F916F915F914F91C2
:100E70003F912F910F900FBE0F901F9018951F92CA
:100E80000F920FB60F9211248F93809179018F5F8B
:100E9000809379018F910F900FBE0F901F9018953E
:100EA0001F920F920FB60F9211242F933F938F939F
:100EB0009F938091810086FF1BC020918600309116
:100EC00087008091840090918500821B930B909302
:100ED000850080938400809181008F7B80938100C6
:100EE00081E086BB80916F00816080936F0015C0A8
:100EF000809186009091870090937701809376018E
:100F000080916F008F7D80936F0080916F008E7F46
:100F100080936F0081E0809378019F918F913F9142
:100F20002F910F900FBE0F901F901895789484B555
:100F3000826084BD84B5816084BD85B5826085BDD5
:100F400085B5816085BD80916E00816080936E0063
:100F50001092810080918100826080938100809155
:100F60008100816080938100809180008160809306
:100F700080008091B10084608093B1008091B000C6
:100F800081608093B00080917A00846080937A00C1
:100F900080917A00826080937A0080917A008160EB
:100FA00080937A0080917A00806880937A00109212
:100FB000C100F8941092800094E090938100809199
:100FC000810080648093810080918100806880939B
:100FD000810090BFB59A80916F00806280936F000E
:100FE00080917F00816080937F00789482E00E94EE
:100FF000900480E40E948204C8E0D1E0699184E911
:1010000091E00E943E0581E0C031D807B9F788E43D
:101010000E948204C0E0D1E008E011E0699184E917
:1010200091E00E943E050C171D07C1F78091A401B5
:101030008D7F8093A40188600E9482040E948804AE
:1010400080E00E942D0560E084E991E00E943E0569
:1010500089E291E00E945A0581E00E942D058EE20E
:1010600091E00E945A0560ED77E080E090E00E94F8
:1010700088030E94880489E391E00E945A0581E078
:101080000E942D0581E491E00E945A0546E950E056
:1010900060E070E08CED95E00E94A700C0E0D0E039
:1010A00080917901882371F144EF51E060E070E0B4
:1010B0008AEF90E00E94A7000E9488048EE491E0ED
:1010C0000E945A0581E00E942D0585E591E00E946D
:1010D0005A058CE291E00E945A0562EE74E080E0CD
:1010E00090E00E948803109278011092790180911B
:1010F0008100806480938100B59A80916F00806246
:1011000080936F0080917801813009F047C0809111
:101110007601909177014E9728F08091790188238C
:1011200009F442C044EF51E060E070E08AEF90E0E3
:101130000E94A7000E9488048EE491E00E945A0554
:1011400081E00E942D0585E591E00E945A0580917D
:101150007901882321F080E691E00E945A05809170
:10116000760190917701809720F482E691E00E94C9
:101170005A0562EE74E080E090E00E9488031092CD
:1011800078011092790180918100806480938100C0
:10119000B59A80916F00806280936F00209709F468
:1011A0007FCF0E9400007CCF8091760190917701E3
:1011B0004E97F8F26091760170917701CB01A0E033
:1011C000B0E0BC01CD0124E0660F771F881F991F96
:1011D0002A95D1F760937201709373018093740123
:1011E000909375010E94880A20E034E244E759E4B4
:1011F0000E94E7096B017C0160936E0170936F019F
:10120000809370019093710146E950E060E070E0D6
:1012100080E293E00E94A7000E94880480E00E9480
:101220002D0520E030E040E05FE3C701B6010E94F9
:10123000E20987FF1DC020E030E0A901C701B60127
:101240000E943A0B1816A4F484E691E00E945A0515
:1012500020916E0130916F014091700150917101A8
:1012600060E070E080E89FE30E94E70940E003C08F
:1012700042E0C701B6010E949D0587E691E00E9409
:101280005A0581E00E942D056091720170917301F1
:1012900080917401909175014AE00E945C0561E0C3
:1012A00084E991E00E943E058CE691E060CFE4E99C
:1012B000F1E01382128285E191E09183808383E1E2
:1012C00084838FEF858382E1868381E1878380E158
:1012D00080878FE081878EE082871386148615864B
:1012E0001686178681E00C9490045058BB27AA27D5
:1012F0000E948D090C94000B0E94F20A38F00E94A3
:10130000F90A20F039F49F3F19F426F40C94EF0AFF
:101310000EF4E095E7FB0C94E90AE92F0E94110B0B
:1013200058F3BA17620773078407950720F079F41A
:10133000A6F50C94330B0EF4E0950B2EBA2FA02DCE
:101340000B01B90190010C01CA01A0011124FF2772
:10135000591B99F0593F50F4503E68F11A16F0406D
:10136000A22F232F342F4427585FF3CF469537956C
:101370002795A795F0405395C9F77EF41F16BA0B31
:10138000620B730B840BBAF09150A1F0FF0FBB1FDF
:10139000661F771F881FC2F70EC0BA0F621F731F28
:1013A000841F48F4879577956795B795F7959E3F85
:1013B00008F0B0CF9395880F08F09927EE0F979516
:1013C000879508950E94C50A08F481E008950E9457
:1013D000FB090C94000B0E94F90A58F00E94F20AD3
:1013E00040F029F45F3F29F00C94E90A51110C9464
:1013F000340B0C94EF0A0E94110B68F39923B1F39C
:10140000552391F3951B550BBB27AA27621773072A
:10141000840738F09F5F5F4F220F331F441FAA1FBE
:10142000A9F335D00E2E3AF0E0E832D0915050407A
:10143000E695001CCAF72BD0FE2F29D0660F771F28
:10144000881FBB1F261737074807AB07B0E809F00E
:10145000BB0B802DBF01FF2793585F4F3AF09E3F93
:10146000510578F00C94E90A0C94340B5F3FE4F3D7
:10147000983ED4F3869577956795B795F7959F5FD6
:10148000C9F7880F911D9695879597F90895E1E022
:10149000660F771F881FBB1F621773078407BA0781
:1014A00020F0621B730B840BBA0BEE1F88F7E095DC
:1014B00008950E94190B88F09F5798F0B92F99272B
:1014C000B751B0F0E1F0660F771F881F991F1AF02F
:1014D000BA95C9F714C0B13091F00E94330BB1E056
:1014E00008950C94330B672F782F8827B85F39F055
:1014F000B93FCCF3869577956795B395D9F73EF4C8
:1015000090958095709561957F4F8F4F9F4F08956F
:10151000E89409C097FB3EF490958095709561958D
:101520007F4F8F4F9F4F9923A9F0F92F96E9BB2743
:101530009395F695879577956795B795F111F8CFBF
:10154000FAF4BB0F11F460FF1BC06F5F7F4F8F4F2A
:101550009F4F16C0882311F096E911C0772321F020
:101560009EE8872F762F05C0662371F096E8862FB8
:1015700070E060E02AF09A95660F771F881FDAF70F
:10158000880F9695879597F90895990F0008550F3C
:10159000AA0BE0E8FEEF16161706E807F907C0F0F9
:1015A00012161306E407F50798F0621B730B840B01
:1015B000950B39F40A2661F0232B242B252B21F4DB
:1015C00008950A2609F4A140A6958FEF811D811D7B
:1015D000089597F99F6780E870E060E008959FEFB5
:1015E00080EC089500240A941616170618060906BA
:1015F000089500240A941216130614060506089589
:10160000092E0394000C11F4882352F0BB0F40F410
:10161000BF2B11F460FF04C06F5F7F4F8F4F9F4F50
:10162000089557FD9058440F551F59F05F3F71F0D2
:101630004795880F97FB991F61F09F3F79F0879539
:101640000895121613061406551FF2CF4695F1DFC2
:1016500008C0161617061806991FF1CF8695710552
:10166000610508940895E894BB2766277727CB0186
:1016700097F908950E94C50A08F48FEF08950E9413
:10168000520B0C94000B0E94F20A38F00E94F90AE7
:1016900020F0952311F00C94E90A0C94EF0A112420
:1016A0000C94340B0E94110B70F3959FC1F3950FAE
:1016B00050E0551F629FF001729FBB27F00DB11DD6
:1016C000639FAA27F00DB11DAA1F649F6627B00D66
:1016D000A11D661F829F2227B00DA11D621F739F4F
:1016E000B00DA11D621F839FA00D611D221F749F5D
:1016F0003327A00D611D231F849F600D211D822FA4
:10170000762F6A2F11249F5750409AF0F1F08823CA
:101710004AF0EE0FFF1FBB1F661F771F881F9150F7
:101720005040A9F79E3F510580F00C94E90A0C94B3
:10173000340B5F3FE4F3983ED4F386957795679535
:10174000B795F795E7959F5FC1F7FE2B880F911D21
:101750009695879597F908950E94C50A880B990B6D
:101760000895A1E21A2EAA1BBB1BFD010DC0AA1FE2
:10177000BB1FEE1FFF1FA217B307E407F50720F0FA
:10178000A21BB30BE40BF50B661F771F881F991F75
:101790001A9469F760957095809590959B01AC01BE
:1017A000BD01CF010895052E97FB1EF400940E9401
:1017B000EA0B57FD07D00E94B10B07FC03D04EF493
:1017C0000C94EA0B50954095309521953F4F4F4F23
:1017D0005F4F089590958095709561957F4F8F4FDD
:1017E0009F4F08950E94030CA59F900DB49F900DEC
:1017F000A49F800D911D11240895EE0FFF1F0590E9
:10180000F491E02D0994A29FB001B39FC001A39F62
:10181000700D811D1124911DB29F700D811D112429
:10182000911D089581E090E0F8940C94170CF894C1
:02183000FFCFE8
:101832000000001212121C101F11151715111F00A3
:10184200FF000000003E05C203450544056E616EBF
:1018520000696E66006F7666003230323100446F86
:101862006E2046726F756C61005368757474657290
:101872000053706565642054657374657200506C22
:10188200656173650074727920616761696E200019
:0E18920032003300312F0020536563005300F5
:00000001FF
